S0150000736D735F726F6D5061796C6F61642E686578AD
S214000000480FF8016000000048000039436F70791F
S214000010726967687420313938342D3230303520B3
S21400002057696E64205269766572205379737465D9
S2140000306D732C20496E632E38400002480000087D
S2140000407C621B787C6000A65464045E548403DAE9
S21400005054840524548407324800002860000000B9
S214000060600000006000000060000000600000000B
S21400007060000000600000006000000060000000FB
S2140000807C9B03A63C80FFF0608400947C9A03A6C9
S2140000904C0000647C0002783820FFFF7C1603A624
S2140000A07C1C43A67C1D43A67C3053A67C1453A61A
S2140000B07C1E0BA67C0103A67C1F0BA638600100E5
S2140000C07C7063A6388002007C9163A638A003008B
S2140000D07CB263A638C004007CD363A638E0050073
S2140000E07CF463A6386006007C7563A6388007003B
S2140000F07C9663A638A009007CB863A638C00B00BF
S2140001007CDA63A638E00C007CFB63A638600D0042
S2140001107C7C63A638800E007C9D63A638A00F000A
S2140001207CBE63A638C010007CDF63A638E01100F2
S2140001307CF083A6386012007C7183A6388013009A
S2140001407C9283A638A014007CB383A638C0000037
S2140001507C0004AC4C00012C7CD2FBA638E00002EC
S2140001607C0004AC4C00012C7CF2FBA638C00000DE
S2140001707C0004AC4C00012C7CD3FBA638E00002CB
S2140001807C0004AC4C00012C7CF3FBA64C00012C3C
S21400019038E000017C0004AC4C00012C7CF3FBA68C
S2140001A07C0004AC4C00012C38A000027CA5103961
S2140001B0418206943CC0FE0060C650D43CE010006D
S2140001C060E7000490E600003CC0FE0060C650D425
S2140001D03CE0000360E7000490E600007C0006AC0C
S2140001E03CE0FE0E38E70E2080870000708407FF94
S2140001F038C0000B34C6FFFF408100C43860138847
S2140002007C6903A64200000080A7000070A507FFD7
S2140002107C6428507CA42B782C03000A4181FFD8EC
S2140002202C03FFF64180FFD054A5801E3C60800062
S2140002307CA51B7890A700004C00012C7C0004AC29
S2140002407C0006AC3CE0FE0E60E70E103CC0810071
S21400025060C6000090C700007C0006AC3CC00003EF
S21400026060C60D407CC903A642000000388000012D
S2140002703CC0810060C60100806700007C0330003F
S214000280418200403CA0FE0E60A500708065000024
S21400029064630001906500007C0006AC7C8903A6C0
S2140002A042000000806500005463041C9065000056
S2140002B07C0006AC388400014BFFFFC048000002FB
S2140002C03CC0FE0060C60C083CE0000060E7000092
S2140002D090E600003CC0FE0060C60C103CE080F0DB
S2140002E060E7001C90E600003CC0FE0060C60C28DC
S2140002F03CE0000260E7000090E600003CC0FE0024
S21400030060C60C303CE0804060E7001B90E60000D2
S2140003103CC0FE0060C60C683CE0000E60E70000D3
S21400032090E600003CC0FE0060C60C703CE08040DA
S21400033060E7001A90E600003CC0FE0060C6500071
S2140003403CE0FF8060E7080190E600003CC0FE004D
S21400035060C650043CE0FF8060E7079790E6000028
S2140003603CC0FE0060C620003CE0000060E7000FD6
S21400037090E600003CE0800060E7010290E6008026
S2140003803CE0001060E7001F90E600083CE08000BC
S21400039060E7010290E600843CE0000060E70000B1
S2140003A090E600103CE0000060E7000090E6008861
S2140003B03CE0000060E7000090E600183CE000002B
S2140003C060E7000090E6008C3CE0373360E74321AE
S2140003D090E601083CE0000060E7080090E6010CAB
S2140003E03CE0420060E7000090E601103CE00000C0
S2140003F060E7002290E601183CE0052060E7010077
S21400040090E601243CE000FF60E7000090E60E580E
S2140004103CE0C20060E7000090E601103CC0FE0031
S21400042060C650183CE0200060E7186190E60000C7
S2140004303CC0FE0060C6501C3CE0FC0060E70CC1FF
S21400044090E600003CC0FE0060C650203CE0240061
S21400045060E7186190E600003CC0FE0060C65024CD
S2140004603CE0FC0060E70CC190E600003CC0FE00EB
S21400047060C650283CE0280060E7080190E60000CF
S2140004803CC0FE0060C6502C3CE0FF0060E708F46D
S21400049090E600003CC0FE0060C650303CE0E00045
S2140004A060E7180190E600003CC0FE0060C65034CD
S2140004B03CE0FC0060E7079790E600003CC0FE00CA
S2140004C060C650083CE0E40060E7180190E60000D3
S2140004D03CC0FE0060C6500C3CE0FC0060E707979E
S2140004E090E600003CC0FE0060C650D43CE0000031
S2140004F060E7000290E600003CC0FE0060C650A424
S2140005003CE00C0060E7000090E600003C80100134
S214000510608400007C909BA63CA0C00060A50900FB
S2140005207CB19BA63CC0000060C600007CD29BA6A7
S2140005303CE0000060E7003F7CF39BA67C0007A43D
S2140005407C00046C3C801002608400007C909BA6BB
S2140005503CA0C00060A509007CB19BA63CC0100072
S21400056060C600007CD29BA63CE0100060E7003F1F
S2140005707CF39BA67C0007A47C00046C3C801005E2
S214000580608400007C909BA63CA0800060A50800CC
S2140005907CB19BA63CC0200060C600067CD29BA611
S2140005A03CE0200060E7003F7CF39BA67C0007A4AD
S2140005B07C00046C3C801006608400007C909BA647
S2140005C03CA0800060A508007CB19BA63CC024002F
S2140005D060C600067CD29BA63CE0240060E7003F95
S2140005E07CF39BA67C0007A47C00046C3CC0FE0049
S2140005F060C650943CE0286260E7A52790E60000BD
S2140006003CC0200060C600003CE0000060E700FF41
S21400061090E600003CC0240060C600003CE00000FD
S21400062060E700FF90E600007C0006AC3CC0FE00E1
S21400063060C650943CE0086260E7A52790E600009C
S2140006403CC0200060C600003CE0000060E700FF01
S21400065090E600003CC0240060C600003CE00000BD
S21400066060E700FF90E600003CC0200060C6000087
S2140006703CE0000060E700FF90E600003CC024007D
S21400068060C600003CE0000060E700FF90E6000067
S2140006903CC0200060C600003CE0000060E700FFB1
S2140006A090E600003CC0240060C600003CE000006D
S2140006B060E700FF90E600003CC0200060C6000037
S2140006C03CE0000060E700FF90E600003CC024002D
S2140006D060C600003CE0000060E700FF90E6000017
S2140006E03CC0200060C600003CE0000060E700FF61
S2140006F090E600003CC0240060C600003CE000001D
S21400070060E700FF90E600003CC0200060C60000E6
S2140007103CE0000060E700FF90E600003CC02400DC
S21400072060C600003CE0000060E700FF90E60000C6
S2140007303CC0200060C600003CE0000060E700FF10
S21400074090E600003CC0240060C600003CE00000CC
S21400075060E700FF90E600003CC0200060C6000096
S2140007603CE0000060E700FF90E600003CC024008C
S21400077060C600003CE0000060E700FF90E6000076
S2140007803CC0FE0060C650943CE0186260E7A527B7
S21400079090E600007C0006AC3CC0200060C600006E
S2140007A03CE0000060E700FF90E600003CC024004C
S2140007B060C600003CE0000060E700FF90E6000036
S2140007C03CC0FE0060C650943CE0406260E7A5274F
S2140007D090E600007C0006AC3C80100560840000BB
S2140007E07C909BA63CA0800060A508007CB19BA6E0
S2140007F03CC0200060C600007CD29BA63CE02000E7
S21400080060E7003F7CF39BA67C0007A47C00046C9A
S2140008103C801006608400007C909BA63CA0800074
S21400082060A508007CB19BA63CC0240060C6000002
S2140008307CD29BA63CE0240060E7003F7CF39BA6AE
S2140008407C0007A47CC632787CE73A787CE731D611
S2140008503C200001602100003821FFF03CC0FFF082
S21400086060C600003CE0FFF060E708C03D00FFF017
S214000870610800007CC638507CC642147CC803A6BB
S2140008807C4313784E80002060000000600000006B
S21400089060000000600000006000000060000000D3
S2140008A060000000600000006000000060000000C3
S2140008B060000000600000006000000060000000B3
S2140008C09421FFE07C0802A693E1001C7C7F1B7845
S2140008D09001002438A000007CBC43A67CBD43A643
S2140008E07CBC43A63CA000E038A500003C60FFF0BE
S2140008F03CA5FFFF3C8000013863134854A5F0BEBA
S2140009004800020573E0000241A2000848000145C5
S21400091039604300380000013D20FFF0980B0000CE
S2140009203929100038000001912B000439400000DE
S214000930900B00087FE4FB783C000001914B000C14
S214000940914B001038600000914B001493EB001898
S214000950900B001C480000359061000848000241DA
S214000960800100087FE3FB787C0903A64CC6318231
S2140009704E80042183E1001C8001002438210020E1
S2140009807C0803A64E8000209421FFE07C0802A687
S2140009903D20FFF09001002493E1001C3BE910008D
S2140009A093A100143FA0FFF0801F002093C1001801
S2140009B07C7E1B782F80FFFF419E0078801F0020E2
S2140009C02F800000419E001C801F00202F80000505
S2140009D0419E0010801F00202F80000240BE00288D
S2140009E0801F00242F800004419E001C807F00286A
S2140009F0809F003080BF00347C63F21454A5F0BEA4
S214000A0048000105801F00202F800000409E001433
S214000A10801F00242F80000140BE000883BF0030E6
S214000A203BFF003C801F00202F80FFFF409EFF9072
S214000A30800100247FA3EB7883C1001883A10014F3
S214000A4083E1001C7C0803A6382100204E8000208D
S214000A509421FFF07C0802A63860440038802B0002
S214000A60900100144800003D3D2000E039290000B8
S214000A703C8020007D234B787C8920505484F0BE37
S214000A804800002139204200380000009809000084
S214000A9080010014382100107C0803A64E80002038
S214000AA05480E8FE9421FFF07C0B03793920000087
S214000AB0418200307D6903A691230000952300043F
S214000AC09523000495230004952300049523000431
S214000AD09523000495230004386300044200FFDCDD
S214000AE0540018387D602051418200147D6903A6A9
S214000AF091230000386300044200FFF838210010FC
S214000B004E80002054ABE8FE9421FFF07D605B79B8
S214000B10418200547C0903A6800300009004000074
S214000B208523000495240004840300049404000430
S214000B308523000495240004840300049404000420
S214000B408523000495240004840300049404000410
S214000B5085230004952400043863000438840004C8
S214000B604200FFB8556018387C0028514182001CAE
S214000B707C0903A68003000038630004900400008C
S214000B80388400044200FFF0382100104E80002018
S214000B909421FFF0382100104E8000209421FFF0B1
S214000BA0382100104E8000200000000000000000E9
S214000BB00000000000000000000000000000000030
S214000BC00000000000000000000000000000000020
S214000BD00000000000000000000000000000000010
S214000BE00000000000000000000000000000000000
S214001000636F72654F530000000000000000000090
S21400101000000000000000000000000000000000CB
S2140010200000000000000001FF900000001000001B
S214001030001000000030000000001234636F72657C
S2140010404F530000000000000000000000000000F9
S214001050000000000000000000000000000000008B
S21400106000000008FFC00000004000000040000034
S2140010700003000000001234636F72654F530000D7
S214001080000000000000000000000000000000005B
S2140010900000000000000000000000000000000249
S2140010A0FFC3000000430000004300000001800072
S2140010B000001234636F72654F530000000000009A
S2140010C0000000000000000000000000000000001B
S2140010D0000000000000000000000004FFC48000C4
S2140010E000448000004480000005800000001234A8
S2140010F0636F72654F5300000000000000000000A0
S21400110000000000000000000000000000000000DA
S2140011100000000200000008FFC48000014000003C
S214001120014000000010000000001234706F7300D1
S21400113000000000000000000000000000000000AA
S2140011400000000000000000000000000000000199
S21400115000000001FFD48000100000000210000014
S2140011600006000000001234706F730000000000DC
S214001170000000000000000000000000000000006A
S2140011800000000000000000000000010000000851
S214001190FFDA8000100600000216000000010000C2
S2140011A000001234706F73000000000000000000A2
S2140011B0000000000000000000000000000000002A
S2140011C0000000000000000100000002FFDB8000BD
S2140011D01007000002170000000100000000123493
S2140011E0706F7300000000000000000000000000A8
S2140011F000000000000000000000000000000000EA
S2140012000000000100000004FFDC80001008000061
S21400121002180000000100000000123468656C6CC3
S2140012206F0000000000000000000000000000004A
S21400123000000000000000000000000000000003A6
S21400124000000001FF8000004000000002190000BE
S214001250000C00000000123468656C6C6F00000023
S2140012600000000000000000000000000000000079
S214001270000000000000000000000003000000085E
S214001280FF8C0000400C0000022500000002000059
S2140012900000123468656C6C6F00000000000000EF
S2140012A00000000000000000000000000000000039
S2140012B0000000000000000300000002FF8E000097
S2140012C0400E00000227000000020000000012345A
S2140012D068656C6C6F0000000000000000000000F5
S2140012E000000000000000000000000000000000F9
S2140012F00000000300000004FF9000004010000003
S2140013000229000000100000000012340000000057
S21400131000000000000000000000000000000000C8
S214001320000000000000000000000000FFFFFFFFBC
S21400133000000000000000000000000000000000A8
S2140013400000000000000000000000000000000098
S2140013500000000000000000000000000000000088
S2140013600000000000000000000000000000000078
S2140FF8007C0002787C1A03A67C1B03A67C1A0BA628
S2140FF8107C1B0BA67C1A8BA67C1B8BA67C100BA6C0
S2140FF8207C199BA6600000003C80100160840000DD
S2140FF8307C909BA63CA0C00060A509007CB19BA64F
S2140FF8403CC0000060C600067CD29BA63CE00000D1
S2140FF85060E7003F7CF39BA67C0007A47C00046C4B
S2140FF8603C801002608400007C909BA63CA0C000E9
S2140FF87060A509007CB19BA63CC0100060C60006C0
S2140FF8807CD29BA63CE0100060E7003F7CF39BA673
S2140FF8907C0007A47C00046C3C801004608400008D
S2140FF8A07C909BA63CA0800060A505007CB19BA623
S2140FF8B03CC0FF7060C6001E7CD29BA63CE0FF706B
S2140FF8C060E700077CF39BA67C0007A47C00046C13
S2140FF8D03C801003608400007C909BA63CA0C00078
S2140FF8E060A505007CB19BA63CC0FE0060C6001E4E
S2140FF8F07CD29BA63CE0FE0060E700077CF39BA64D
S2140FF9007C0007A47C00046C3CE0FF7038E7000026
S2140FF91080C700004C00012C3CC0001038C6E00029
S2140FF92090C700003CE0000038E7F80080C70000F2
S2140FF9304C00012C3CE0FE0038E7000080C70000BA
S2140FF9404C00012C3C801004608400007C909BA629
S2140FF9503CA0C00060A507007CB19BA63CC0280059
S2140FF96060C6001E7CD29BA63CE0280060E7000F16
S2140FF9707CF39BA67C0007A47C00046C3C801000E4
S2140FF980608400007C909BA63CA0C00060A507008A
S2140FF9907CB19BA63CC0FF0060C600167CD29BA61F
S2140FF9A03CE0FF0060E700337CF39BA67C0007A4D7
S2140FF9B07C00046C4BF00684000000000000000082
S2140FF9C00000000000000000000000000000000023
S2140FF9D00000000000000000000000000000000013
S2140FF9E00000000000000000000000000000000003
S2140FF9F000000000000000000000000000000000F3
S2140FFFF00000000000000000000000004BFFF804A7
S804000000FB
